:100000000C9435000C945D000C945D000C945D0024
:100010000C945D000C945D000C945D000C945D00EC
:100020000C945D000C945D000C945D000C945D00DC
:100030000C945D000C945D000C945D000C945D00CC
:100040000C941E020C945D000C94EC010C94C601FF
:100050000C945D000C945D000C945D000C945D00AC
:100060000C945D000C945D001C0311241FBECFEFA7
:10007000D8E0DEBFCDBF11E0A0E0B1E0E4E6FCE0F7
:1000800002C005900D92A434B107D9F721E0A4E491
:10009000B1E001C01D92AA3EB207E1F710E0C5E34E
:1000A000D0E004C02197FE010E944903C433D10768
:1000B000C9F70E9468020C9430060C940000AF92BD
:1000C000BF92CF92DF92EF92FF920F931F93CF9345
:1000D000DF936C017B018B01040F151FEB015E01A7
:1000E000AE18BF08C017D10759F06991D601ED913C
:1000F000FC910190F081E02DC6010995892B79F7DB
:10010000C501DF91CF911F910F91FF90EF90DF908C
:10011000CF90BF90AF900895FC01538D448D252F53
:1001200030E0842F90E0821B930B541710F0CF9691
:10013000089501970895FC01918D828D981761F0C3
:10014000A28DAE0FBF2FB11D5D968C91928D9F5FDA
:100150009F73928F90E008958FEF9FEF0895FC01B9
:10016000918D828D981731F0828DE80FF11D858D6C
:1001700090E008958FEF9FEF0895FC01918D228DFF
:10018000892F90E0805C9F4F821B91098F73992784
:1001900008958DE491E00E94BD0021E0892B09F4CF
:1001A00020E0822F089580E090E0892B29F00E94C2
:1001B000C90081110C9400000895FC01A48DA80FC2
:1001C000B92FB11DA35ABF4F2C91848D90E0019699
:1001D0008F739927848FA689B7892C93A089B189B9
:1001E0008C91837080648C93938D848D981306C05A
:1001F0000288F389E02D80818F7D80830895EF92BE
:10020000FF920F931F93CF93DF93EC0181E0888FD0
:100210009B8D8C8D98131AC0E889F989808185FFA0
:1002200015C09FB7F894EE89FF896083E889F98942
:1002300080818370806480839FBF81E090E0DF9144
:10024000CF911F910F91FF90EF900895F62E0B8D97
:1002500010E00F5F1F4F0F731127E02E8C8D8E1152
:100260000CC00FB607FCFACFE889F989808185FFB9
:10027000F5CFCE010E94DD00F1CFEB8DEC0FFD2F0D
:10028000F11DE35AFF4FF0829FB7F8940B8FEA8974
:10029000FB8980818062CFCFCF93DF93EC01888D83
:1002A0008823B9F0AA89BB89E889F9898C9185FDF1
:1002B00003C0808186FD0DC00FB607FCF7CF8C917F
:1002C00085FFF2CF808185FFEDCFCE010E94DD005A
:1002D000E9CFDF91CF9108953FB7F894809149011C
:1002E00090914A01A0914B01B0914C0126B5A89B79
:1002F00005C02F3F19F00196A11DB11D3FBFBA2FB8
:10030000A92F982F8827BC01CD01620F711D811D77
:10031000911D42E0660F771F881F991F4A95D1F7FC
:1003200008950F931F93CF93DF93CDB7DEB7C058D7
:10033000D1090FB6F894DEBF0FBECDBF9E0129577D
:100340003F4FF901419151919F0160E870E08E01AA
:100350000F5F1F4FC8010E944F03F801019000205A
:10036000E9F73197AF01401B510BB8018DE491E0E3
:100370000E945F00C058DF4F0FB6F894DEBF0FBE7B
:10038000CDBFDF91CF911F910F9108951F920F92D2
:100390000FB60F9211242F933F934F935F936F9358
:1003A0007F938F939F93AF93BF93EF93FF938DE4CE
:1003B00091E00E94DD00FF91EF91BF91AF919F917D
:1003C0008F917F916F915F914F913F912F910F90FE
:1003D0000FBE0F901F9018951F920F920FB60F929D
:1003E00011242F938F939F93EF93FF93E0915D01DF
:1003F000F0915E018081E0916301F091640182FDE2
:100400001BC09081809166018F5F8F73209167017F
:10041000821741F0E0916601F0E0E35BFE4F958FBB
:1004200080936601FF91EF919F918F912F910F9093
:100430000FBE0F901F9018958081F4CF1F920F92DE
:100440000FB60F9211242F933F938F939F93AF93E7
:10045000BF938091450190914601A0914701B091D1
:1004600048013091440123E0230F2D3758F50196C0
:10047000A11DB11D20934401809345019093460135
:10048000A0934701B09348018091490190914A019E
:10049000A0914B01B0914C010196A11DB11D80931B
:1004A000490190934A01A0934B01B0934C01BF9135
:1004B000AF919F918F913F912F910F900FBE0F9011
:1004C0001F90189526E8230F0296A11DB11DD2CFCB
:1004D000789484B5826084BD84B5816084BD85B51F
:1004E000826085BD85B5816085BD80916E0081602B
:1004F00080936E00109281008091810082608093D1
:1005000081008091810081608093810080918000D2
:100510008160809380008091B10084608093B100FD
:100520008091B00081608093B00080917A008460F7
:1005300080937A0080917A00826080937A00809123
:100540007A00816080937A0080917A00806880933D
:100550007A001092C100E0915D01F0915E0182E0AD
:100560008083E0915901F0915A011082E0915B0182
:10057000F0915C018FEC808310926501E091610144
:10058000F091620186E08083E0915F01F09160016B
:10059000808180618083E0915F01F09160018081C2
:1005A00088608083E0915F01F091600180818068C4
:1005B0008083E0915F01F091600180818F7D808375
:1005C00082E191E09F938F930E9491010F900F9091
:1005D00010E0C0E3D1E01F921F93DF93CF930E94FE
:1005E00091011F5F0E946C014B015C010F900F9005
:1005F0000F900F9080EDC82E87E0D82EE12CF12CC3
:100600000E946C01681979098A099B09683E734048
:1006100081059105A8F321E0C21AD108E108F1088B
:1006200088EE880E83E0981EA11CB11CC114D10471
:10063000E104F10429F7CFCFEDE4F1E01382128257
:1006400088EE93E0A0E0B0E084839583A683B7832F
:1006500084E091E09183808385EC90E095878487A6
:1006600084EC90E09787868780EC90E0918B808B7C
:1006700081EC90E0938B828B82EC90E0958B848B65
:1006800086EC90E0978B868B118E128E138E148ED3
:100690000895EE0FFF1F0590F491E02D0994AEE050
:1006A000B0E0E5E5F3E00C9407068C01FA0186E082
:1006B0008C831A83098377FF02C060E070E8615081
:1006C00071097E836D83A901BF01CE0101960E944D
:1006D0007B034D815E8157FD0AC02F81388542170B
:1006E00053070CF49A01020F131FF80110822E9683
:1006F000E4E00C942306ABE0B0E0E1E8F3E00C9416
:10070000F9057C013B018A01FC0117821682838175
:1007100081FFC8C1CE0101965C01F7019381F3010D
:1007200093FD859193FF81913F01882309F453C183
:10073000853239F493FD859193FF81913F01853294
:1007400029F4B70190E00E946B05E7CF912C212C92
:10075000312CFFE1F31538F08B3211F190F4803237
:1007600009F1833229F137FC3CC020ED280F2A30F3
:1007700050F536FE20C08AE0989E200D1124922E5E
:1007800006C08D3291F0803371F7689430F8F30130
:1007900093FD859193FF81913F018111DACF21C0B3
:1007A000689431F8689432F8F2CF689433F8EFCF58
:1007B000689434F8ECCFEAE02E9E200D1124222E0E
:1007C000689435F8E4CF8E3229F436FC04C168947D
:1007D00036F8DDCF8C3619F4689437F8D8CF8836E0
:1007E000B1F2982F9F7D95549330E0F08336A1F1BC
:1007F0008337C1F1833509F063C02801F2E04F0E61
:10080000511CF801C080D180692D70E036FC02C017
:100810006FEF7FEFC6010E9455054C01689437F8D1
:1008200082010AC00C5F1F4FFFE3F9838824839481
:10083000912C6501E89437F833FE2DC0522C8114B9
:10084000910471F5552009F468CFB70180E290E07A
:100850000E946B055A94F6CFF801808189830E5F60
:100860001F4FE4CF2801F2E04F0E511CF801C08069
:10087000D180692D70E036FC02C06FEF7FEFC601BA
:100880000E9460054C018201D5CFB70180E290E063
:100890000E946B052A942814190409F0B0F7CECFF2
:1008A000F60137FC859137FE81916F01B70190E029
:1008B0000E946B0551105A94F1E08F1A9108BFCF36
:1008C000843619F0893609F077C0F80137FE6BC01D
:1008D00060817181828193810C5F1F4FF32DFF76C0
:1008E0003F2E97FF09C090958095709561957F4F39
:1008F0008F4F9F4F689437F82AE030E0A5010E949F
:100900009B05C82ECA188C2C432C36FE0CC0E894CC
:1009100040F8C91440F434FE05C032FC03C0F32D86
:10092000FE7E4F2E892C44FE95C0FE01EC0DF11D7C
:100930008081803309F087C0242D297E422E842DAA
:100940008870582E43FC95C040FE8FC09C2C8214AA
:1009500018F42C0C922C981844FE91C0B70180E337
:1009600090E00E946B0542FE09C088E790E041FEDE
:1009700002C088E590E0B7010E946B05C91408F435
:100980008AC0CA94D12C9FEFC91AD90ACA0CDB1CA1
:10099000F60182916F01B70190E00E946B05AC14E3
:1009A000BD04B1F74FCF60817181072E000C880B19
:1009B000990B0E5F1F4F92CFD32CE894D4F82AE006
:1009C00030E0853739F1232D297FD22E8F3601F182
:1009D00048F48835A9F0F701868197812B96E2E1EA
:1009E0000C941506803749F08837A9F7D4FE02C069
:1009F0006894D2F820E130E00DC06894D4F8F6CFC6
:100A000034FE03C0822F8660D82E20E132E002C07F
:100A100028E030E0F801D7FE0FC06081718182814B
:100A200093810C5F1F4FA5010E949B05C82ECA1819
:100A30003D2CE89437F867CF6081718190E080E0C9
:100A40000E5F1F4FF0CF42FC02C0839478CF839497
:100A5000839475CF842D867809F471CFF6CFB701D2
:100A600080E290E00E946B0583948214C0F3512CC5
:100A700073CF522C5818821408F46ECFF8CF842DFF
:100A8000867809F47BCF8BE241FE80E247FC8DE261
:100A9000B70190E071CFB70180E390E00E946B0551
:100AA0009A946CCF8FEF9FEF99CFFC010590615026
:100AB00070400110D8F7809590958E0F9F1F089574
:100AC000FC016150704001900110D8F7809590951D
:100AD0008E0F9F1F08950F931F93CF93DF93182FAF
:100AE000092FEB018B8181FD09C01FEF0FEF812FD3
:100AF000902FDF91CF911F910F91089582FF14C025
:100B00002E813F818C819D81281739073CF4E88133
:100B1000F981CF0101969983888310838E819F810B
:100B200001969F838E83E3CFE885F985812F099510
:100B3000892BA1F3DACFFA01AA27283051F120310D
:100B400081F1E8946F936E7F6E5F7F4F8F4F9F4F61
:100B5000AF4FB1E03ED0B4E03CD0670F781F891FA3
:100B60009A1FA11D680F791F8A1F911DA11D6A0F71
:100B7000711D811D911DA11D20D009F468943F9124
:100B80002AE0269F11243019305D3193DEF6CF0123
:100B90000895462F4770405D4193B3E00FD0C9F7E9
:100BA000F6CF462F4F70405D4A3318F0495D31FD56
:100BB0004052419302D0A9F7EACFB4E0A6959795A9
:100BC000879577956795BA95C9F70097610571057F
:100BD00008959B01AC010A2E0694579547953795C9
:100BE0002795BA95C9F7620F731F841F951FA01D23
:100BF00008952F923F924F925F926F927F928F92C1
:100C00009F92AF92BF92CF92DF92EF92FF920F939B
:100C10001F93CF93DF93CDB7DEB7CA1BDB0B0FB6A5
:100C2000F894DEBF0FBECDBF09942A883988488862
:100C30005F846E847D848C849B84AA84B984C884F8
:100C4000DF80EE80FD800C811B81AA81B981CE0FEF
:100C5000D11D0FB6F894DEBF0FBECDBFED010895D4
:040C6000F894FFCF36
:100C640000000000FF005F008C004C01BD009B00F1
:100C7400AF000A0D5653436F64652073616D706C49
:100C840065206170706C69636174696F6E0A0D0030
:100C9400436F756E7465722076616C75653A2025B4
:040CA400640A0D00D1
:00000001FF
